{
  "_format": "hh-sol-artifact-1",
  "contractName": "Whitepaper",
  "sourceName": "contracts/Whitepaper.sol",
  "abi": [
    {
      "inputs": [],
      "stateMutability": "nonpayable",
      "type": "constructor"
    },
    {
      "anonymous": false,
      "inputs": [
        {
          "indexed": true,
          "internalType": "address",
          "name": "owner",
          "type": "address"
        },
        {
          "indexed": true,
          "internalType": "address",
          "name": "approved",
          "type": "address"
        },
        {
          "indexed": true,
          "internalType": "uint256",
          "name": "tokenId",
          "type": "uint256"
        }
      ],
      "name": "Approval",
      "type": "event"
    },
    {
      "anonymous": false,
      "inputs": [
        {
          "indexed": true,
          "internalType": "address",
          "name": "owner",
          "type": "address"
        },
        {
          "indexed": true,
          "internalType": "address",
          "name": "operator",
          "type": "address"
        },
        {
          "indexed": false,
          "internalType": "bool",
          "name": "approved",
          "type": "bool"
        }
      ],
      "name": "ApprovalForAll",
      "type": "event"
    },
    {
      "anonymous": false,
      "inputs": [
        {
          "indexed": true,
          "internalType": "address",
          "name": "delegator",
          "type": "address"
        },
        {
          "indexed": true,
          "internalType": "address",
          "name": "fromDelegate",
          "type": "address"
        },
        {
          "indexed": true,
          "internalType": "address",
          "name": "toDelegate",
          "type": "address"
        }
      ],
      "name": "DelegateChanged",
      "type": "event"
    },
    {
      "anonymous": false,
      "inputs": [
        {
          "indexed": true,
          "internalType": "address",
          "name": "delegate",
          "type": "address"
        },
        {
          "indexed": false,
          "internalType": "uint256",
          "name": "previousBalance",
          "type": "uint256"
        },
        {
          "indexed": false,
          "internalType": "uint256",
          "name": "newBalance",
          "type": "uint256"
        }
      ],
      "name": "DelegateVotesChanged",
      "type": "event"
    },
    {
      "anonymous": false,
      "inputs": [
        {
          "indexed": true,
          "internalType": "address",
          "name": "previousOwner",
          "type": "address"
        },
        {
          "indexed": true,
          "internalType": "address",
          "name": "newOwner",
          "type": "address"
        }
      ],
      "name": "OwnershipTransferred",
      "type": "event"
    },
    {
      "anonymous": false,
      "inputs": [
        {
          "indexed": false,
          "internalType": "string[]",
          "name": "pageContant",
          "type": "string[]"
        },
        {
          "indexed": true,
          "internalType": "uint256",
          "name": "tokenId",
          "type": "uint256"
        }
      ],
      "name": "PageContact",
      "type": "event"
    },
    {
      "anonymous": false,
      "inputs": [
        {
          "indexed": true,
          "internalType": "address",
          "name": "from",
          "type": "address"
        },
        {
          "indexed": true,
          "internalType": "address",
          "name": "to",
          "type": "address"
        },
        {
          "indexed": true,
          "internalType": "uint256",
          "name": "tokenId",
          "type": "uint256"
        }
      ],
      "name": "Transfer",
      "type": "event"
    },
    {
      "anonymous": false,
      "inputs": [
        {
          "indexed": false,
          "internalType": "string",
          "name": "value",
          "type": "string"
        },
        {
          "indexed": true,
          "internalType": "uint256",
          "name": "tokenId",
          "type": "uint256"
        }
      ],
      "name": "URI",
      "type": "event"
    },
    {
      "inputs": [],
      "name": "DOMAIN_SEPARATOR",
      "outputs": [
        {
          "internalType": "bytes32",
          "name": "",
          "type": "bytes32"
        }
      ],
      "stateMutability": "view",
      "type": "function"
    },
    {
      "inputs": [],
      "name": "MAX_WHITE_PAPER_SUPPLY",
      "outputs": [
        {
          "internalType": "uint256",
          "name": "",
          "type": "uint256"
        }
      ],
      "stateMutability": "view",
      "type": "function"
    },
    {
      "inputs": [
        {
          "internalType": "address",
          "name": "to",
          "type": "address"
        },
        {
          "internalType": "uint256",
          "name": "tokenId",
          "type": "uint256"
        }
      ],
      "name": "approve",
      "outputs": [],
      "stateMutability": "nonpayable",
      "type": "function"
    },
    {
      "inputs": [
        {
          "internalType": "address",
          "name": "owner",
          "type": "address"
        }
      ],
      "name": "balanceOf",
      "outputs": [
        {
          "internalType": "uint256",
          "name": "",
          "type": "uint256"
        }
      ],
      "stateMutability": "view",
      "type": "function"
    },
    {
      "inputs": [
        {
          "internalType": "uint256",
          "name": "tokenId",
          "type": "uint256"
        }
      ],
      "name": "burn",
      "outputs": [],
      "stateMutability": "nonpayable",
      "type": "function"
    },
    {
      "inputs": [
        {
          "internalType": "address",
          "name": "delegatee",
          "type": "address"
        }
      ],
      "name": "delegate",
      "outputs": [],
      "stateMutability": "nonpayable",
      "type": "function"
    },
    {
      "inputs": [
        {
          "internalType": "address",
          "name": "delegatee",
          "type": "address"
        },
        {
          "internalType": "uint256",
          "name": "nonce",
          "type": "uint256"
        },
        {
          "internalType": "uint256",
          "name": "expiry",
          "type": "uint256"
        },
        {
          "internalType": "uint8",
          "name": "v",
          "type": "uint8"
        },
        {
          "internalType": "bytes32",
          "name": "r",
          "type": "bytes32"
        },
        {
          "internalType": "bytes32",
          "name": "s",
          "type": "bytes32"
        }
      ],
      "name": "delegateBySig",
      "outputs": [],
      "stateMutability": "nonpayable",
      "type": "function"
    },
    {
      "inputs": [
        {
          "internalType": "address",
          "name": "account",
          "type": "address"
        }
      ],
      "name": "delegates",
      "outputs": [
        {
          "internalType": "address",
          "name": "",
          "type": "address"
        }
      ],
      "stateMutability": "view",
      "type": "function"
    },
    {
      "inputs": [
        {
          "internalType": "uint256",
          "name": "tokenId",
          "type": "uint256"
        }
      ],
      "name": "getApproved",
      "outputs": [
        {
          "internalType": "address",
          "name": "",
          "type": "address"
        }
      ],
      "stateMutability": "view",
      "type": "function"
    },
    {
      "inputs": [
        {
          "internalType": "uint256",
          "name": "blockNumber",
          "type": "uint256"
        }
      ],
      "name": "getPastTotalSupply",
      "outputs": [
        {
          "internalType": "uint256",
          "name": "",
          "type": "uint256"
        }
      ],
      "stateMutability": "view",
      "type": "function"
    },
    {
      "inputs": [
        {
          "internalType": "address",
          "name": "account",
          "type": "address"
        },
        {
          "internalType": "uint256",
          "name": "blockNumber",
          "type": "uint256"
        }
      ],
      "name": "getPastVotes",
      "outputs": [
        {
          "internalType": "uint256",
          "name": "",
          "type": "uint256"
        }
      ],
      "stateMutability": "view",
      "type": "function"
    },
    {
      "inputs": [
        {
          "internalType": "uint256",
          "name": "_tokenId",
          "type": "uint256"
        }
      ],
      "name": "getText",
      "outputs": [
        {
          "internalType": "string[]",
          "name": "",
          "type": "string[]"
        }
      ],
      "stateMutability": "view",
      "type": "function"
    },
    {
      "inputs": [
        {
          "internalType": "address",
          "name": "account",
          "type": "address"
        }
      ],
      "name": "getVotes",
      "outputs": [
        {
          "internalType": "uint256",
          "name": "",
          "type": "uint256"
        }
      ],
      "stateMutability": "view",
      "type": "function"
    },
    {
      "inputs": [
        {
          "internalType": "address",
          "name": "owner",
          "type": "address"
        },
        {
          "internalType": "address",
          "name": "operator",
          "type": "address"
        }
      ],
      "name": "isApprovedForAll",
      "outputs": [
        {
          "internalType": "bool",
          "name": "",
          "type": "bool"
        }
      ],
      "stateMutability": "view",
      "type": "function"
    },
    {
      "inputs": [
        {
          "internalType": "address",
          "name": "to",
          "type": "address"
        }
      ],
      "name": "mint",
      "outputs": [],
      "stateMutability": "nonpayable",
      "type": "function"
    },
    {
      "inputs": [],
      "name": "mintPrice",
      "outputs": [
        {
          "internalType": "uint256",
          "name": "",
          "type": "uint256"
        }
      ],
      "stateMutability": "nonpayable",
      "type": "function"
    },
    {
      "inputs": [],
      "name": "name",
      "outputs": [
        {
          "internalType": "string",
          "name": "",
          "type": "string"
        }
      ],
      "stateMutability": "view",
      "type": "function"
    },
    {
      "inputs": [
        {
          "internalType": "address",
          "name": "owner",
          "type": "address"
        }
      ],
      "name": "nonces",
      "outputs": [
        {
          "internalType": "uint256",
          "name": "",
          "type": "uint256"
        }
      ],
      "stateMutability": "view",
      "type": "function"
    },
    {
      "inputs": [],
      "name": "owner",
      "outputs": [
        {
          "internalType": "address",
          "name": "",
          "type": "address"
        }
      ],
      "stateMutability": "view",
      "type": "function"
    },
    {
      "inputs": [
        {
          "internalType": "uint256",
          "name": "tokenId",
          "type": "uint256"
        }
      ],
      "name": "ownerOf",
      "outputs": [
        {
          "internalType": "address",
          "name": "",
          "type": "address"
        }
      ],
      "stateMutability": "view",
      "type": "function"
    },
    {
      "inputs": [
        {
          "internalType": "uint256",
          "name": "_tokenId",
          "type": "uint256"
        }
      ],
      "name": "price",
      "outputs": [
        {
          "internalType": "uint256",
          "name": "",
          "type": "uint256"
        }
      ],
      "stateMutability": "view",
      "type": "function"
    },
    {
      "inputs": [],
      "name": "renounceOwnership",
      "outputs": [],
      "stateMutability": "nonpayable",
      "type": "function"
    },
    {
      "inputs": [
        {
          "internalType": "uint256",
          "name": "_tokenId",
          "type": "uint256"
        },
        {
          "internalType": "uint256",
          "name": "_salePrice",
          "type": "uint256"
        }
      ],
      "name": "royaltyInfo",
      "outputs": [
        {
          "internalType": "address",
          "name": "receiver",
          "type": "address"
        },
        {
          "internalType": "uint256",
          "name": "royaltyAmount",
          "type": "uint256"
        }
      ],
      "stateMutability": "view",
      "type": "function"
    },
    {
      "inputs": [
        {
          "internalType": "address",
          "name": "from",
          "type": "address"
        },
        {
          "internalType": "address",
          "name": "to",
          "type": "address"
        },
        {
          "internalType": "uint256",
          "name": "tokenId",
          "type": "uint256"
        }
      ],
      "name": "safeTransferFrom",
      "outputs": [],
      "stateMutability": "nonpayable",
      "type": "function"
    },
    {
      "inputs": [
        {
          "internalType": "address",
          "name": "from",
          "type": "address"
        },
        {
          "internalType": "address",
          "name": "to",
          "type": "address"
        },
        {
          "internalType": "uint256",
          "name": "tokenId",
          "type": "uint256"
        },
        {
          "internalType": "bytes",
          "name": "_data",
          "type": "bytes"
        }
      ],
      "name": "safeTransferFrom",
      "outputs": [],
      "stateMutability": "nonpayable",
      "type": "function"
    },
    {
      "inputs": [
        {
          "internalType": "address",
          "name": "operator",
          "type": "address"
        },
        {
          "internalType": "bool",
          "name": "approved",
          "type": "bool"
        }
      ],
      "name": "setApprovalForAll",
      "outputs": [],
      "stateMutability": "nonpayable",
      "type": "function"
    },
    {
      "inputs": [
        {
          "internalType": "bytes4",
          "name": "interfaceId",
          "type": "bytes4"
        }
      ],
      "name": "supportsInterface",
      "outputs": [
        {
          "internalType": "bool",
          "name": "",
          "type": "bool"
        }
      ],
      "stateMutability": "view",
      "type": "function"
    },
    {
      "inputs": [],
      "name": "symbol",
      "outputs": [
        {
          "internalType": "string",
          "name": "",
          "type": "string"
        }
      ],
      "stateMutability": "view",
      "type": "function"
    },
    {
      "inputs": [
        {
          "internalType": "uint256",
          "name": "tokenId",
          "type": "uint256"
        }
      ],
      "name": "tokenURI",
      "outputs": [
        {
          "internalType": "string",
          "name": "",
          "type": "string"
        }
      ],
      "stateMutability": "view",
      "type": "function"
    },
    {
      "inputs": [
        {
          "internalType": "address",
          "name": "from",
          "type": "address"
        },
        {
          "internalType": "address",
          "name": "to",
          "type": "address"
        },
        {
          "internalType": "uint256",
          "name": "tokenId",
          "type": "uint256"
        }
      ],
      "name": "transferFrom",
      "outputs": [],
      "stateMutability": "nonpayable",
      "type": "function"
    },
    {
      "inputs": [
        {
          "internalType": "address",
          "name": "newOwner",
          "type": "address"
        }
      ],
      "name": "transferOwnership",
      "outputs": [],
      "stateMutability": "nonpayable",
      "type": "function"
    },
    {
      "inputs": [],
      "name": "treasury",
      "outputs": [
        {
          "internalType": "address",
          "name": "",
          "type": "address"
        }
      ],
      "stateMutability": "view",
      "type": "function"
    },
    {
      "inputs": [
        {
          "internalType": "uint256",
          "name": "tokenId",
          "type": "uint256"
        },
        {
          "internalType": "string[]",
          "name": "_text",
          "type": "string[]"
        }
      ],
      "name": "typewrite",
      "outputs": [],
      "stateMutability": "nonpayable",
      "type": "function"
    }
  ],
  "bytecode": "0x610140604052600a600d8190556103e8600e55600f556064601055601280546001600160a01b031916733b7a108fb52bc263d8fcb6c77dff5b9b152c5f2c1790553480156200004d57600080fd5b506040518060400160405280600a8152602001692bb434ba32a830b832b960b11b815250604051806040016040528060038152602001620312e360ec1b8152506040518060400160405280600a8152602001692bb434ba32a830b832b960b11b81525060405180604001604052806002815260200161057560f41b8152508160009080519060200190620000e392919062000207565b508051620000f990600190602084019062000207565b5050506200011662000110620001b160201b60201c565b620001b5565b815160208084019190912082518383012060e08290526101008190524660a0818152604080517f8b73c3c69bb8fe3d512ecc4cf759cc79239f7b179b0ffacaa9a75d522b39400f81880181905281830187905260608201869052608082019490945230818401528151808203909301835260c00190528051940193909320919290916080523060601b60c0526101205250620002ea92505050565b3390565b600780546001600160a01b038381166001600160a01b0319831681179093556040519116919082907f8be0079c531659141344cd1fd0a4f28419497f9722a3daafe3b4186f6b6457e090600090a35050565b8280546200021590620002ad565b90600052602060002090601f01602090048101928262000239576000855562000284565b82601f106200025457805160ff191683800117855562000284565b8280016001018555821562000284579182015b828111156200028457825182559160200191906001019062000267565b506200029292915062000296565b5090565b5b8082111562000292576000815560010162000297565b600181811c90821680620002c257607f821691505b60208210811415620002e457634e487b7160e01b600052602260045260246000fd5b50919050565b60805160a05160c05160601c60e05161010051610120516135c96200033d6000396000611405015260006114540152600061142f01526000611388015260006113b2015260006113dc01526135c96000f3fe608060405234801561001057600080fd5b50600436106101fb5760003560e01c80636817c76c1161011a57806395d89b41116100ad578063bd6450831161007c578063bd64508314610460578063c3cda52014610473578063c87b56dd14610486578063e985e9c514610499578063f2fde38b146104d557600080fd5b806395d89b411461041f5780639ab24eb014610427578063a22cb4651461043a578063b88d4fde1461044d57600080fd5b80637ecebe00116100e95780637ecebe00146103c85780637f4ef9d4146103db5780638da5cb5b146103fb5780638e539e8c1461040c57600080fd5b80636817c76c146103925780636a6278421461039a57806370a08231146103ad578063715018a6146103c057600080fd5b806339d1237711610192578063587cde1e11610161578063587cde1e1461032d5780635c19a95c1461035957806361d027b31461036c5780636352211e1461037f57600080fd5b806339d12377146102eb5780633a46b1a8146102f457806342842e0e1461030757806342966c681461031a57600080fd5b806323b872dd116101ce57806323b872dd1461027d57806326a49e37146102905780632a55205a146102b15780633644e515146102e357600080fd5b806301ffc9a71461020057806306fdde0314610228578063081812fc1461023d578063095ea7b314610268575b600080fd5b61021361020e366004612a9b565b6104e8565b60405190151581526020015b60405180910390f35b61023061053a565b60405161021f9190612eb3565b61025061024b366004612ad5565b6105cc565b6040516001600160a01b03909116815260200161021f565b61027b610276366004612a11565b610666565b005b61027b61028b36600461291d565b61077c565b6102a361029e366004612ad5565b6107ae565b60405190815260200161021f565b6102c46102bf366004612bd7565b6107c6565b604080516001600160a01b03909316835260208301919091520161021f565b6102a36107f9565b6102a361271081565b6102a3610302366004612a11565b610808565b61027b61031536600461291d565b610831565b61027b610328366004612ad5565b61084c565b61025061033b3660046128cf565b6001600160a01b039081166000908152600860205260409020541690565b61027b6103673660046128cf565b6108c6565b601254610250906001600160a01b031681565b61025061038d366004612ad5565b6108d5565b6102a361094c565b61027b6103a83660046128cf565b610965565b6102a36103bb3660046128cf565b6109d6565b61027b610a5d565b6102a36103d63660046128cf565b610ac3565b6103ee6103e9366004612ad5565b610ae1565b60405161021f9190612e51565b6007546001600160a01b0316610250565b6102a361041a366004612ad5565b610bcd565b610230610c29565b6102a36104353660046128cf565b610c38565b61027b6104483660046129d5565b610c59565b61027b61045b366004612959565b610c64565b61027b61046e366004612aee565b610c9c565b61027b610481366004612a3b565b610e21565b610230610494366004612ad5565b610f4e565b6102136104a73660046128ea565b6001600160a01b03918216600090815260056020908152604080832093909416825291909152205460ff1690565b61027b6104e33660046128cf565b610fac565b60006001600160e01b031982166380ac58cd60e01b148061051957506001600160e01b03198216635b5e139f60e01b145b8061053457506301ffc9a760e01b6001600160e01b03198316145b92915050565b60606000805461054990613028565b80601f016020809104026020016040519081016040528092919081815260200182805461057590613028565b80156105c25780601f10610597576101008083540402835291602001916105c2565b820191906000526020600020905b8154815290600101906020018083116105a557829003601f168201915b5050505050905090565b6000818152600260205260408120546001600160a01b031661064a5760405162461bcd60e51b815260206004820152602c60248201527f4552433732313a20617070726f76656420717565727920666f72206e6f6e657860448201526b34b9ba32b73a103a37b5b2b760a11b60648201526084015b60405180910390fd5b506000908152600460205260409020546001600160a01b031690565b6000610671826108d5565b9050806001600160a01b0316836001600160a01b031614156106df5760405162461bcd60e51b815260206004820152602160248201527f4552433732313a20617070726f76616c20746f2063757272656e74206f776e656044820152603960f91b6064820152608401610641565b336001600160a01b03821614806106fb57506106fb81336104a7565b61076d5760405162461bcd60e51b815260206004820152603860248201527f4552433732313a20617070726f76652063616c6c6572206973206e6f74206f7760448201527f6e6572206e6f7220617070726f76656420666f7220616c6c00000000000000006064820152608401610641565b6107778383611074565b505050565b610787335b826110e2565b6107a35760405162461bcd60e51b815260040161064190612f18565b6107778383836111d9565b6000600e5482116107c1575050600d5490565b919050565b600080806127106107d8606486612fc6565b6107e29190612fb2565b6012546001600160a01b0316969095509350505050565b600061080361137b565b905090565b6001600160a01b038216600090815260096020526040812061082a90836114a2565b9392505050565b61077783838360405180602001604052806000815250610c64565b61085533610781565b6108ba5760405162461bcd60e51b815260206004820152603060248201527f4552433732314275726e61626c653a2063616c6c6572206973206e6f74206f7760448201526f1b995c881b9bdc88185c1c1c9bdd995960821b6064820152608401610641565b6108c3816115b1565b50565b336108d181836115ba565b5050565b6000818152600260205260408120546001600160a01b0316806105345760405162461bcd60e51b815260206004820152602960248201527f4552433732313a206f776e657220717565727920666f72206e6f6e657869737460448201526832b73a103a37b5b2b760b91b6064820152608401610641565b600061080361095a600c5490565b61029e906001612f9a565b600c54612710116109b15760405162461bcd60e51b8152602060048201526016602482015275416c6c2070617065727320776173206d696e7465642160501b6044820152606401610641565b6109bf600c80546001019055565b60006109ca600c5490565b90506108d1828261162c565b60006001600160a01b038216610a415760405162461bcd60e51b815260206004820152602a60248201527f4552433732313a2062616c616e636520717565727920666f7220746865207a65604482015269726f206164647265737360b01b6064820152608401610641565b506001600160a01b031660009081526003602052604090205490565b6007546001600160a01b03163314610ab75760405162461bcd60e51b815260206004820181905260248201527f4f776e61626c653a2063616c6c6572206973206e6f7420746865206f776e65726044820152606401610641565b610ac16000611646565b565b6001600160a01b0381166000908152600b6020526040812054610534565b606060146000838152602001908152602001600020805480602002602001604051908101604052809291908181526020016000905b82821015610bc2578382906000526020600020018054610b3590613028565b80601f0160208091040260200160405190810160405280929190818152602001828054610b6190613028565b8015610bae5780601f10610b8357610100808354040283529160200191610bae565b820191906000526020600020905b815481529060010190602001808311610b9157829003601f168201915b505050505081526020019060010190610b16565b505050509050919050565b6000438210610c1e5760405162461bcd60e51b815260206004820152601a60248201527f566f7465733a20626c6f636b206e6f7420796574206d696e65640000000000006044820152606401610641565b610534600a836114a2565b60606001805461054990613028565b6001600160a01b038116600090815260096020526040812061053490611698565b6108d13383836116f4565b610c6e33836110e2565b610c8a5760405162461bcd60e51b815260040161064190612f18565b610c96848484846117c3565b50505050565b610ca5826108d5565b6001600160a01b0316336001600160a01b031614610d135760405162461bcd60e51b815260206004820152602560248201527f4f6e6c7920746865206f776e65722063616e2063616c6c20746869732066756e60448201526431ba34b7b760d91b6064820152608401610641565b60008281526013602052604090205460ff1615610d6a5760405162461bcd60e51b81526020600482015260156024820152742830b832b91020b63932b0b23c902bb934ba3a32b760591b6044820152606401610641565b60008281526014602090815260409091208251610d899284019061271b565b5060008281526013602052604090819020805460ff191660011790555182907f3645411f4236194bc5538149f832deb54c10bc5785071b1c4d4b459cd508347190610dd5908490612e51565b60405180910390a2817f6bb7ff708619ba0610cba295a58592e0451dee2622938c8755667688daf3529b610e0884610f4e565b604051610e159190612eb3565b60405180910390a25050565b83421115610e715760405162461bcd60e51b815260206004820152601860248201527f566f7465733a207369676e6174757265206578706972656400000000000000006044820152606401610641565b604080517fe48329057bfd03d55e49b547132e39cffd9c1820ad7b9d4c5307691425d15adf60208201526001600160a01b038816918101919091526060810186905260808101859052600090610eeb90610ee39060a001604051602081830303815290604052805190602001206117f6565b858585611844565b9050610ef68161186c565b8614610f3b5760405162461bcd60e51b8152602060048201526014602482015273566f7465733a20696e76616c6964206e6f6e636560601b6044820152606401610641565b610f4581886115ba565b50505050505050565b60606000610f82610f5e84611894565b604051602001610f6e9190612d55565b604051602081830303815290604052611a7d565b905080604051602001610f959190612dcf565b604051602081830303815290604052915050919050565b6007546001600160a01b031633146110065760405162461bcd60e51b815260206004820181905260248201527f4f776e61626c653a2063616c6c6572206973206e6f7420746865206f776e65726044820152606401610641565b6001600160a01b03811661106b5760405162461bcd60e51b815260206004820152602660248201527f4f776e61626c653a206e6577206f776e657220697320746865207a65726f206160448201526564647265737360d01b6064820152608401610641565b6108c381611646565b600081815260046020526040902080546001600160a01b0319166001600160a01b03841690811790915581906110a9826108d5565b6001600160a01b03167f8c5be1e5ebec7d5bd14f71427d1e84f3dd0314c0f7b2291e5b200ac8c7c3b92560405160405180910390a45050565b6000818152600260205260408120546001600160a01b031661115b5760405162461bcd60e51b815260206004820152602c60248201527f4552433732313a206f70657261746f7220717565727920666f72206e6f6e657860448201526b34b9ba32b73a103a37b5b2b760a11b6064820152608401610641565b6000611166836108d5565b9050806001600160a01b0316846001600160a01b031614806111ad57506001600160a01b0380821660009081526005602090815260408083209388168352929052205460ff165b806111d15750836001600160a01b03166111c6846105cc565b6001600160a01b0316145b949350505050565b826001600160a01b03166111ec826108d5565b6001600160a01b0316146112505760405162461bcd60e51b815260206004820152602560248201527f4552433732313a207472616e736665722066726f6d20696e636f72726563742060448201526437bbb732b960d91b6064820152608401610641565b6001600160a01b0382166112b25760405162461bcd60e51b8152602060048201526024808201527f4552433732313a207472616e7366657220746f20746865207a65726f206164646044820152637265737360e01b6064820152608401610641565b6112bd600082611074565b6001600160a01b03831660009081526003602052604081208054600192906112e6908490612fe5565b90915550506001600160a01b0382166000908152600360205260408120805460019290611314908490612f9a565b909155505060008181526002602052604080822080546001600160a01b0319166001600160a01b0386811691821790925591518493918716917fddf252ad1be2c89b69c2b068fc378daa952ba7f163c4a11628f55a4df523b3ef91a4610777838383611be3565b6000306001600160a01b037f0000000000000000000000000000000000000000000000000000000000000000161480156113d457507f000000000000000000000000000000000000000000000000000000000000000046145b156113fe57507f000000000000000000000000000000000000000000000000000000000000000090565b50604080517f00000000000000000000000000000000000000000000000000000000000000006020808301919091527f0000000000000000000000000000000000000000000000000000000000000000828401527f000000000000000000000000000000000000000000000000000000000000000060608301524660808301523060a0808401919091528351808403909101815260c0909201909252805191012090565b60004382106114f35760405162461bcd60e51b815260206004820181905260248201527f436865636b706f696e74733a20626c6f636b206e6f7420796574206d696e65646044820152606401610641565b825460005b8181101561155857600061150c8284611bee565b905084866000018281548110611524576115246130ce565b60009182526020909120015463ffffffff16111561154457809250611552565b61154f816001612f9a565b91505b506114f8565b811561159c578461156a600184612fe5565b8154811061157a5761157a6130ce565b60009182526020909120015464010000000090046001600160e01b031661159f565b60005b6001600160e01b031695945050505050565b6108c381611c09565b6001600160a01b0382811660008181526008602052604080822080548686166001600160a01b0319821681179092559151919094169392849290917f3134e8a2e6d97e929a7e54011ea5485d7d196dd5f0ba4d4ef95803e8e3fc257f9190a4610777818361162786611c49565b611c54565b6108d1828260405180602001604052806000815250611d91565b600780546001600160a01b038381166001600160a01b0319831681179093556040519116919082907f8be0079c531659141344cd1fd0a4f28419497f9722a3daafe3b4186f6b6457e090600090a35050565b805460009080156116e157826116af600183612fe5565b815481106116bf576116bf6130ce565b60009182526020909120015464010000000090046001600160e01b03166116e4565b60005b6001600160e01b03169392505050565b816001600160a01b0316836001600160a01b031614156117565760405162461bcd60e51b815260206004820152601960248201527f4552433732313a20617070726f766520746f2063616c6c6572000000000000006044820152606401610641565b6001600160a01b03838116600081815260056020908152604080832094871680845294825291829020805460ff191686151590811790915591519182527f17307eab39ab6107e8899845ad3d59bd9653f200f220920489ca2b5937696c31910160405180910390a3505050565b6117ce8484846111d9565b6117da84848484611dc4565b610c965760405162461bcd60e51b815260040161064190612ec6565b600061053461180361137b565b8360405161190160f01b6020820152602281018390526042810182905260009060620160405160208183030381529060405280519060200120905092915050565b600080600061185587878787611ece565b9150915061186281611fbb565b5095945050505050565b6001600160a01b0381166000908152600b602052604090208054600181018255905b50919050565b606080606080606060405180610480016040528061044381526020016131116104439139925060005b600087815260146020526040902054811015611a2c5760606118f36118e3836064612fc6565b6118ee9060fa612f9a565b612176565b6040516020016119039190612cd8565b60405160208183030381529060405290506000601460008a8152602001908152602001600020838154811061193a5761193a6130ce565b90600052602060002001805461194f90613028565b80601f016020809104026020016040519081016040528092919081815260200182805461197b90613028565b80156119c85780601f1061199d576101008083540402835291602001916119c8565b820191906000526020600020905b8154815290600101906020018083116119ab57829003601f168201915b5050505050905081816040516020016119e2929190612c97565b60405160208183030381529060405291508682604051602001611a06929190612c25565b604051602081830303815290604052965050508080611a249061305d565b9150506118bd565b50604051806040016040528060068152602001651e17b9bb339f60d11b8152509150828483604051602001611a6393929190612c54565b60408051601f198184030181529190529695505050505050565b6060815160001415611a9d57505060408051602081019091526000815290565b60006040518060600160405280604081526020016135546040913990506000600384516002611acc9190612f9a565b611ad69190612fb2565b611ae1906004612fc6565b90506000611af0826020612f9a565b67ffffffffffffffff811115611b0857611b086130e4565b6040519080825280601f01601f191660200182016040528015611b32576020820181803683370190505b509050818152600183018586518101602084015b81831015611b9e576003830192508251603f8160121c168501518253600182019150603f81600c1c168501518253600182019150603f8160061c168501518253600182019150603f8116850151825350600101611b46565b600389510660018114611bb85760028114611bc957611bd5565b613d3d60f01b600119830152611bd5565b603d60f81b6000198301525b509398975050505050505050565b610777838383612274565b6000611bfd6002848418612fb2565b61082a90848416612f9a565b611c1281612280565b60008181526006602052604090208054611c2b90613028565b1590506108c35760008181526006602052604081206108c391612774565b6000610534826109d6565b816001600160a01b0316836001600160a01b031614158015611c765750600081115b15610777576001600160a01b03831615611d04576001600160a01b03831660009081526009602052604081208190611cb1906123238561232f565b91509150846001600160a01b03167fdec2bacdd2f05b59de34da9b523dff8be42e5e38e818c82fdb0bae774387a7248383604051611cf9929190918252602082015260400190565b60405180910390a250505b6001600160a01b03821615610777576001600160a01b03821660009081526009602052604081208190611d3a9061235d8561232f565b91509150836001600160a01b03167fdec2bacdd2f05b59de34da9b523dff8be42e5e38e818c82fdb0bae774387a7248383604051611d82929190918252602082015260400190565b60405180910390a25050505050565b611d9b8383612369565b611da86000848484611dc4565b6107775760405162461bcd60e51b815260040161064190612ec6565b60006001600160a01b0384163b15611ec657604051630a85bd0160e11b81526001600160a01b0385169063150b7a0290611e08903390899088908890600401612e14565b602060405180830381600087803b158015611e2257600080fd5b505af1925050508015611e52575060408051601f3d908101601f19168201909252611e4f91810190612ab8565b60015b611eac573d808015611e80576040519150601f19603f3d011682016040523d82523d6000602084013e611e85565b606091505b508051611ea45760405162461bcd60e51b815260040161064190612ec6565b805181602001fd5b6001600160e01b031916630a85bd0160e11b1490506111d1565b5060016111d1565b6000807f7fffffffffffffffffffffffffffffff5d576e7357a4501ddfe92f46681b20a0831115611f055750600090506003611fb2565b8460ff16601b14158015611f1d57508460ff16601c14155b15611f2e5750600090506004611fb2565b6040805160008082526020820180845289905260ff881692820192909252606081018690526080810185905260019060a0016020604051602081039080840390855afa158015611f82573d6000803e3d6000fd5b5050604051601f1901519150506001600160a01b038116611fab57600060019250925050611fb2565b9150600090505b94509492505050565b6000816004811115611fcf57611fcf6130b8565b1415611fd85750565b6001816004811115611fec57611fec6130b8565b141561203a5760405162461bcd60e51b815260206004820152601860248201527f45434453413a20696e76616c6964207369676e617475726500000000000000006044820152606401610641565b600281600481111561204e5761204e6130b8565b141561209c5760405162461bcd60e51b815260206004820152601f60248201527f45434453413a20696e76616c6964207369676e6174757265206c656e677468006044820152606401610641565b60038160048111156120b0576120b06130b8565b14156121095760405162461bcd60e51b815260206004820152602260248201527f45434453413a20696e76616c6964207369676e6174757265202773272076616c604482015261756560f01b6064820152608401610641565b600481600481111561211d5761211d6130b8565b14156108c35760405162461bcd60e51b815260206004820152602260248201527f45434453413a20696e76616c6964207369676e6174757265202776272076616c604482015261756560f01b6064820152608401610641565b60608161219a5750506040805180820190915260018152600360fc1b602082015290565b8160005b81156121c457806121ae8161305d565b91506121bd9050600a83612fb2565b915061219e565b60008167ffffffffffffffff8111156121df576121df6130e4565b6040519080825280601f01601f191660200182016040528015612209576020820181803683370190505b5090505b84156111d15761221e600183612fe5565b915061222b600a86613078565b612236906030612f9a565b60f81b81838151811061224b5761224b6130ce565b60200101906001600160f81b031916908160001a90535061226d600a86612fb2565b945061220d565b610777838360016124b3565b600061228b826108d5565b9050612298600083611074565b6001600160a01b03811660009081526003602052604081208054600192906122c1908490612fe5565b909155505060008281526002602052604080822080546001600160a01b0319169055518391906001600160a01b038416907fddf252ad1be2c89b69c2b068fc378daa952ba7f163c4a11628f55a4df523b3ef908390a46108d181600084611be3565b600061082a8284612fe5565b6000806123518561234c61234288611698565b868863ffffffff16565b612523565b91509150935093915050565b600061082a8284612f9a565b6001600160a01b0382166123bf5760405162461bcd60e51b815260206004820181905260248201527f4552433732313a206d696e7420746f20746865207a65726f20616464726573736044820152606401610641565b6000818152600260205260409020546001600160a01b0316156124245760405162461bcd60e51b815260206004820152601c60248201527f4552433732313a20746f6b656e20616c7265616479206d696e746564000000006044820152606401610641565b6001600160a01b038216600090815260036020526040812080546001929061244d908490612f9a565b909155505060008181526002602052604080822080546001600160a01b0319166001600160a01b03861690811790915590518392907fddf252ad1be2c89b69c2b068fc378daa952ba7f163c4a11628f55a4df523b3ef908290a46108d160008383611be3565b6001600160a01b0383166124d2576124cf600a61235d8361232f565b50505b6001600160a01b0382166124f1576124ee600a6123238361232f565b50505b6001600160a01b0383811660009081526008602052604080822054858416835291205461077792918216911683611c54565b815460009081908161253486611698565b90506000821180156125725750438661254e600185612fe5565b8154811061255e5761255e6130ce565b60009182526020909120015463ffffffff16145b156125d25761258085612649565b8661258c600185612fe5565b8154811061259c5761259c6130ce565b9060005260206000200160000160046101000a8154816001600160e01b0302191690836001600160e01b03160217905550612640565b8560000160405180604001604052806125ea436126b6565b63ffffffff1681526020016125fe88612649565b6001600160e01b0390811690915282546001810184556000938452602093849020835194909301519091166401000000000263ffffffff909316929092179101555b95939450505050565b60006001600160e01b038211156126b25760405162461bcd60e51b815260206004820152602760248201527f53616665436173743a2076616c756520646f65736e27742066697420696e20326044820152663234206269747360c81b6064820152608401610641565b5090565b600063ffffffff8211156126b25760405162461bcd60e51b815260206004820152602660248201527f53616665436173743a2076616c756520646f65736e27742066697420696e203360448201526532206269747360d01b6064820152608401610641565b828054828255906000526020600020908101928215612768579160200282015b8281111561276857825180516127589184916020909101906127ae565b509160200191906001019061273b565b506126b292915061282e565b50805461278090613028565b6000825580601f10612790575050565b601f0160209004906000526020600020908101906108c3919061284b565b8280546127ba90613028565b90600052602060002090601f0160209004810192826127dc5760008555612822565b82601f106127f557805160ff1916838001178555612822565b82800160010185558215612822579182015b82811115612822578251825591602001919060010190612807565b506126b292915061284b565b808211156126b25760006128428282612774565b5060010161282e565b5b808211156126b2576000815560010161284c565b600067ffffffffffffffff83111561287a5761287a6130e4565b61288d601f8401601f1916602001612f69565b90508281528383830111156128a157600080fd5b828260208301376000602084830101529392505050565b80356001600160a01b03811681146107c157600080fd5b6000602082840312156128e157600080fd5b61082a826128b8565b600080604083850312156128fd57600080fd5b612906836128b8565b9150612914602084016128b8565b90509250929050565b60008060006060848603121561293257600080fd5b61293b846128b8565b9250612949602085016128b8565b9150604084013590509250925092565b6000806000806080858703121561296f57600080fd5b612978856128b8565b9350612986602086016128b8565b925060408501359150606085013567ffffffffffffffff8111156129a957600080fd5b8501601f810187136129ba57600080fd5b6129c987823560208401612860565b91505092959194509250565b600080604083850312156129e857600080fd5b6129f1836128b8565b915060208301358015158114612a0657600080fd5b809150509250929050565b60008060408385031215612a2457600080fd5b612a2d836128b8565b946020939093013593505050565b60008060008060008060c08789031215612a5457600080fd5b612a5d876128b8565b95506020870135945060408701359350606087013560ff81168114612a8157600080fd5b9598949750929560808101359460a0909101359350915050565b600060208284031215612aad57600080fd5b813561082a816130fa565b600060208284031215612aca57600080fd5b815161082a816130fa565b600060208284031215612ae757600080fd5b5035919050565b6000806040808486031215612b0257600080fd5b8335925060208085013567ffffffffffffffff80821115612b2257600080fd5b818701915087601f830112612b3657600080fd5b813581811115612b4857612b486130e4565b8060051b612b57858201612f69565b8281528581019085870183870188018d1015612b7257600080fd5b600093505b84841015612bc457803586811115612b8e57600080fd5b8701603f81018e13612b9f57600080fd5b612baf8e8a8301358c8401612860565b84525060019390930192918701918701612b77565b5080985050505050505050509250929050565b60008060408385031215612bea57600080fd5b50508035926020909101359150565b60008151808452612c11816020860160208601612ffc565b601f01601f19169290920160200192915050565b60008351612c37818460208801612ffc565b835190830190612c4b818360208801612ffc565b01949350505050565b60008451612c66818460208901612ffc565b845190830190612c7a818360208901612ffc565b8451910190612c8d818360208801612ffc565b0195945050505050565b60008351612ca9818460208801612ffc565b835190830190612cbd818360208801612ffc565b661e17ba32bc3a1f60c91b9101908152600701949350505050565b703c7465787420783d273230302720793d2760781b815260008251612d04816011850160208701612ffc565b7f2720666f6e742d66616d696c793d27417269616c2720666f6e742d73697a653d601193909101928301525073139a99971993903334b6361e93b13630b1b5939f60611b6031820152604501919050565b693d913730b6b2911d101160b11b815265746573744d4560d01b600a82015261088b60f21b60108201526e1134b6b0b3b2afb230ba30911d101160891b60128201528151600090612dad816021850160208701612ffc565b601160f91b6021939091019283015250607d60f81b6022820152602301919050565b7f646174613a6170706c69636174696f6e2f6a736f6e3b6261736536342c000000815260008251612e0781601d850160208701612ffc565b91909101601d0192915050565b6001600160a01b0385811682528416602082015260408101839052608060608201819052600090612e4790830184612bf9565b9695505050505050565b6000602080830181845280855180835260408601915060408160051b870101925083870160005b82811015612ea657603f19888603018452612e94858351612bf9565b94509285019290850190600101612e78565b5092979650505050505050565b60208152600061082a6020830184612bf9565b60208082526032908201527f4552433732313a207472616e7366657220746f206e6f6e20455243373231526560408201527131b2b4bb32b91034b6b83632b6b2b73a32b960711b606082015260800190565b60208082526031908201527f4552433732313a207472616e736665722063616c6c6572206973206e6f74206f6040820152701ddb995c881b9bdc88185c1c1c9bdd9959607a1b606082015260800190565b604051601f8201601f1916810167ffffffffffffffff81118282101715612f9257612f926130e4565b604052919050565b60008219821115612fad57612fad61308c565b500190565b600082612fc157612fc16130a2565b500490565b6000816000190483118215151615612fe057612fe061308c565b500290565b600082821015612ff757612ff761308c565b500390565b60005b83811015613017578181015183820152602001612fff565b83811115610c965750506000910152565b600181811c9082168061303c57607f821691505b6020821081141561188e57634e487b7160e01b600052602260045260246000fd5b60006000198214156130715761307161308c565b5060010190565b600082613087576130876130a2565b500690565b634e487b7160e01b600052601160045260246000fd5b634e487b7160e01b600052601260045260246000fd5b634e487b7160e01b600052602160045260246000fd5b634e487b7160e01b600052603260045260246000fd5b634e487b7160e01b600052604160045260246000fd5b6001600160e01b0319811681146108c357600080fdfe3c7376672077696474683d273234393427206865696768743d2733353233272076696577426f783d2730203020323439342033353233272066696c6c3d276e6f6e652720786d6c6e733d27687474703a2f2f7777772e77332e6f72672f323030302f737667273e203c672066696c7465723d2775726c282366696c746572305f645f313831355f323030373529273e203c7061746820643d274d3020302e35483234383056333530382e35483138342e3634324c3020333330392e373956302e355a272066696c6c3d277768697465272f3e203c7061746820643d274d3138372e31343220333330392e373956333330372e3239483138342e36343248322e35563348323437372e355633353036483138372e31343256333330392e37395a4d3138322e31343220333331322e323956333530322e31344c352e373335353620333331322e3239483138322e3134325a27207374726f6b653d272341334131413127207374726f6b652d77696474683d2735272f3e203c2f673e203c646566733e203c66696c7465722069643d2766696c746572305f645f313831355f32303037352720783d27302720793d27302e35272077696474683d273234393427206865696768743d2733353232272066696c746572556e6974733d277573657253706163654f6e5573652720636f6c6f722d696e746572706f6c6174696f6e2d66696c746572733d2773524742273e203c6665466c6f6f6420666c6f6f642d6f7061636974793d27302720726573756c743d274261636b67726f756e64496d616765466978272f3e3c6665436f6c6f724d617472697820696e3d27536f75726365416c7068612720747970653d276d6174726978272076616c7565733d2730203020302030203020302030203020302030203020302030203020302030203020302031323720302720726573756c743d2768617264416c706861272f3e203c66654f66667365742064783d273130272064793d273130272f3e3c6665476175737369616e426c757220737464446576696174696f6e3d2732272f3e203c6665436f6d706f7369746520696e323d2768617264416c70686127206f70657261746f723d276f7574272f3e203c6665436f6c6f724d617472697820747970653d276d6174726978272076616c7565733d27302030203020302030203020302030203020302030203020302030203020302030203020302e32352030272f3e203c6665426c656e64206d6f64653d276e6f726d616c2720696e323d274261636b67726f756e64496d6167654669782720726573756c743d27656666656374315f64726f70536861646f775f313831355f3230303735272f3e203c6665426c656e64206d6f64653d276e6f726d616c2720696e3d27536f75726365477261706869632720696e323d27656666656374315f64726f70536861646f775f313831355f32303037352720726573756c743d277368617065272f3e203c2f66696c7465723e3c2f646566733e4142434445464748494a4b4c4d4e4f505152535455565758595a6162636465666768696a6b6c6d6e6f707172737475767778797a303132333435363738392b2fa2646970667358221220a38e1acb7d7e1c4e8cd6b20cb41ab4ac2919894753a911921534c370bb2307a664736f6c63430008070033",
  "linkReferences": {},
  "deployedLinkReferences": {}
}